{
  "address": "0x2279B7A0a67DB372996a5FaB50D91eAA73d2eBe6",
  "abi": [
    {
      "inputs": [
        {
          "internalType": "address",
          "name": "_paymentToken",
          "type": "address"
        },
        {
          "internalType": "address",
          "name": "_owner",
          "type": "address"
        }
      ],
      "stateMutability": "nonpayable",
      "type": "constructor"
    },
    {
      "anonymous": false,
      "inputs": [
        {
          "indexed": false,
          "internalType": "bytes32",
          "name": "_id",
          "type": "bytes32"
        },
        {
          "indexed": true,
          "internalType": "address",
          "name": "_tokenAddress",
          "type": "address"
        },
        {
          "indexed": true,
          "internalType": "uint256",
          "name": "_tokenId",
          "type": "uint256"
        },
        {
          "indexed": false,
          "internalType": "address",
          "name": "_bidder",
          "type": "address"
        },
        {
          "indexed": true,
          "internalType": "address",
          "name": "_seller",
          "type": "address"
        },
        {
          "indexed": false,
          "internalType": "uint256",
          "name": "_price",
          "type": "uint256"
        }
      ],
      "name": "BidAccepted",
      "type": "event"
    },
    {
      "anonymous": false,
      "inputs": [
        {
          "indexed": false,
          "internalType": "bytes32",
          "name": "_id",
          "type": "bytes32"
        },
        {
          "indexed": true,
          "internalType": "address",
          "name": "_tokenAddress",
          "type": "address"
        },
        {
          "indexed": true,
          "internalType": "uint256",
          "name": "_tokenId",
          "type": "uint256"
        },
        {
          "indexed": true,
          "internalType": "address",
          "name": "_bidder",
          "type": "address"
        }
      ],
      "name": "BidCancelled",
      "type": "event"
    },
    {
      "anonymous": false,
      "inputs": [
        {
          "indexed": false,
          "internalType": "bytes32",
          "name": "_id",
          "type": "bytes32"
        },
        {
          "indexed": true,
          "internalType": "address",
          "name": "_tokenAddress",
          "type": "address"
        },
        {
          "indexed": true,
          "internalType": "uint256",
          "name": "_tokenId",
          "type": "uint256"
        },
        {
          "indexed": true,
          "internalType": "address",
          "name": "_bidder",
          "type": "address"
        },
        {
          "indexed": false,
          "internalType": "uint256",
          "name": "_price",
          "type": "uint256"
        },
        {
          "indexed": false,
          "internalType": "uint256",
          "name": "_expiresAt",
          "type": "uint256"
        },
        {
          "indexed": false,
          "internalType": "bytes",
          "name": "_fingerprint",
          "type": "bytes"
        }
      ],
      "name": "BidCreated",
      "type": "event"
    },
    {
      "anonymous": false,
      "inputs": [
        {
          "indexed": true,
          "internalType": "address",
          "name": "previousOwner",
          "type": "address"
        },
        {
          "indexed": true,
          "internalType": "address",
          "name": "newOwner",
          "type": "address"
        }
      ],
      "name": "OwnershipTransferred",
      "type": "event"
    },
    {
      "inputs": [],
      "name": "ERC721Composable_ValidateFingerprint",
      "outputs": [
        {
          "internalType": "bytes4",
          "name": "",
          "type": "bytes4"
        }
      ],
      "stateMutability": "view",
      "type": "function"
    },
    {
      "inputs": [],
      "name": "ERC721_Interface",
      "outputs": [
        {
          "internalType": "bytes4",
          "name": "",
          "type": "bytes4"
        }
      ],
      "stateMutability": "view",
      "type": "function"
    },
    {
      "inputs": [],
      "name": "ERC721_Received",
      "outputs": [
        {
          "internalType": "bytes4",
          "name": "",
          "type": "bytes4"
        }
      ],
      "stateMutability": "view",
      "type": "function"
    },
    {
      "inputs": [],
      "name": "MAX_BID_DURATION",
      "outputs": [
        {
          "internalType": "uint256",
          "name": "",
          "type": "uint256"
        }
      ],
      "stateMutability": "view",
      "type": "function"
    },
    {
      "inputs": [],
      "name": "MIN_BID_DURATION",
      "outputs": [
        {
          "internalType": "uint256",
          "name": "",
          "type": "uint256"
        }
      ],
      "stateMutability": "view",
      "type": "function"
    },
    {
      "inputs": [],
      "name": "ONE_MILLION",
      "outputs": [
        {
          "internalType": "uint256",
          "name": "",
          "type": "uint256"
        }
      ],
      "stateMutability": "view",
      "type": "function"
    },
    {
      "inputs": [
        {
          "internalType": "address",
          "name": "",
          "type": "address"
        },
        {
          "internalType": "uint256",
          "name": "",
          "type": "uint256"
        }
      ],
      "name": "bidCounterByToken",
      "outputs": [
        {
          "internalType": "uint256",
          "name": "",
          "type": "uint256"
        }
      ],
      "stateMutability": "view",
      "type": "function"
    },
    {
      "inputs": [
        {
          "internalType": "address",
          "name": "",
          "type": "address"
        },
        {
          "internalType": "uint256",
          "name": "",
          "type": "uint256"
        },
        {
          "internalType": "address",
          "name": "",
          "type": "address"
        }
      ],
      "name": "bidIdByTokenAndBidder",
      "outputs": [
        {
          "internalType": "bytes32",
          "name": "",
          "type": "bytes32"
        }
      ],
      "stateMutability": "view",
      "type": "function"
    },
    {
      "inputs": [
        {
          "internalType": "bytes32",
          "name": "",
          "type": "bytes32"
        }
      ],
      "name": "bidIndexByBidId",
      "outputs": [
        {
          "internalType": "uint256",
          "name": "",
          "type": "uint256"
        }
      ],
      "stateMutability": "view",
      "type": "function"
    },
    {
      "inputs": [
        {
          "internalType": "address",
          "name": "_tokenAddress",
          "type": "address"
        },
        {
          "internalType": "uint256",
          "name": "_tokenId",
          "type": "uint256"
        }
      ],
      "name": "cancelBid",
      "outputs": [],
      "stateMutability": "nonpayable",
      "type": "function"
    },
    {
      "inputs": [
        {
          "internalType": "address",
          "name": "_tokenAddress",
          "type": "address"
        },
        {
          "internalType": "uint256",
          "name": "_tokenId",
          "type": "uint256"
        },
        {
          "internalType": "address",
          "name": "_bidder",
          "type": "address"
        }
      ],
      "name": "getBidByBidder",
      "outputs": [
        {
          "internalType": "uint256",
          "name": "bidIndex",
          "type": "uint256"
        },
        {
          "internalType": "bytes32",
          "name": "bidId",
          "type": "bytes32"
        },
        {
          "internalType": "address",
          "name": "bidder",
          "type": "address"
        },
        {
          "internalType": "uint256",
          "name": "price",
          "type": "uint256"
        },
        {
          "internalType": "uint256",
          "name": "expiresAt",
          "type": "uint256"
        }
      ],
      "stateMutability": "view",
      "type": "function"
    },
    {
      "inputs": [
        {
          "internalType": "address",
          "name": "_tokenAddress",
          "type": "address"
        },
        {
          "internalType": "uint256",
          "name": "_tokenId",
          "type": "uint256"
        },
        {
          "internalType": "uint256",
          "name": "_index",
          "type": "uint256"
        }
      ],
      "name": "getBidByToken",
      "outputs": [
        {
          "internalType": "bytes32",
          "name": "",
          "type": "bytes32"
        },
        {
          "internalType": "address",
          "name": "",
          "type": "address"
        },
        {
          "internalType": "uint256",
          "name": "",
          "type": "uint256"
        },
        {
          "internalType": "uint256",
          "name": "",
          "type": "uint256"
        }
      ],
      "stateMutability": "view",
      "type": "function"
    },
    {
      "inputs": [
        {
          "internalType": "address",
          "name": "_from",
          "type": "address"
        },
        {
          "internalType": "address",
          "name": "",
          "type": "address"
        },
        {
          "internalType": "uint256",
          "name": "_tokenId",
          "type": "uint256"
        },
        {
          "internalType": "bytes",
          "name": "_data",
          "type": "bytes"
        }
      ],
      "name": "onERC721Received",
      "outputs": [
        {
          "internalType": "bytes4",
          "name": "",
          "type": "bytes4"
        }
      ],
      "stateMutability": "nonpayable",
      "type": "function"
    },
    {
      "inputs": [],
      "name": "owner",
      "outputs": [
        {
          "internalType": "address",
          "name": "",
          "type": "address"
        }
      ],
      "stateMutability": "view",
      "type": "function"
    },
    {
      "inputs": [],
      "name": "paymentToken",
      "outputs": [
        {
          "internalType": "contract ERC20Interface",
          "name": "",
          "type": "address"
        }
      ],
      "stateMutability": "view",
      "type": "function"
    },
    {
      "inputs": [
        {
          "internalType": "address",
          "name": "_tokenAddress",
          "type": "address"
        },
        {
          "internalType": "uint256",
          "name": "_tokenId",
          "type": "uint256"
        },
        {
          "internalType": "uint256",
          "name": "_price",
          "type": "uint256"
        },
        {
          "internalType": "uint256",
          "name": "_duration",
          "type": "uint256"
        }
      ],
      "name": "placeBid",
      "outputs": [],
      "stateMutability": "nonpayable",
      "type": "function"
    },
    {
      "inputs": [
        {
          "internalType": "address",
          "name": "_tokenAddress",
          "type": "address"
        },
        {
          "internalType": "uint256",
          "name": "_tokenId",
          "type": "uint256"
        },
        {
          "internalType": "uint256",
          "name": "_price",
          "type": "uint256"
        },
        {
          "internalType": "uint256",
          "name": "_duration",
          "type": "uint256"
        },
        {
          "internalType": "bytes",
          "name": "_fingerprint",
          "type": "bytes"
        }
      ],
      "name": "placeBid",
      "outputs": [],
      "stateMutability": "nonpayable",
      "type": "function"
    },
    {
      "inputs": [
        {
          "internalType": "address[]",
          "name": "_tokenAddresses",
          "type": "address[]"
        },
        {
          "internalType": "uint256[]",
          "name": "_tokenIds",
          "type": "uint256[]"
        },
        {
          "internalType": "address[]",
          "name": "_bidders",
          "type": "address[]"
        }
      ],
      "name": "removeExpiredBids",
      "outputs": [],
      "stateMutability": "nonpayable",
      "type": "function"
    },
    {
      "inputs": [],
      "name": "renounceOwnership",
      "outputs": [],
      "stateMutability": "nonpayable",
      "type": "function"
    },
    {
      "inputs": [
        {
          "internalType": "address",
          "name": "newOwner",
          "type": "address"
        }
      ],
      "name": "transferOwnership",
      "outputs": [],
      "stateMutability": "nonpayable",
      "type": "function"
    }
  ],
  "transactionHash": "0x5ef86bf2dbadcdcd4f09a9bcdb1d7ed5a4faf971579929d42ef3dafb94a04a32",
  "args": [
    "0x5FbDB2315678afecb367f032d93F642f64180aa3",
    "0xf39Fd6e51aad88F6F4ce6aB8827279cffFb92266"
  ],
  "solcInputHash": "d5b47b3381206ba56c368a0485ad8961",
  "bytecode": "0x60806040523480156200001157600080fd5b5060405162002356380380620023568339810160408190526200003491620001ce565b600080546001600160a01b03191633908117825560405190919060008051602062002336833981519152908290a3600180546001600160a01b0319166001600160a01b038416179055620000888162000090565b505062000206565b33620000a46000546001600160a01b031690565b6001600160a01b031614620001005760405162461bcd60e51b815260206004820181905260248201527f4f776e61626c653a2063616c6c6572206973206e6f7420746865206f776e657260448201526064015b60405180910390fd5b6001600160a01b038116620001675760405162461bcd60e51b815260206004820152602660248201527f4f776e61626c653a206e6577206f776e657220697320746865207a65726f206160448201526564647265737360d01b6064820152608401620000f7565b600080546040516001600160a01b03808516939216916000805160206200233683398151915291a3600080546001600160a01b0319166001600160a01b0392909216919091179055565b80516001600160a01b0381168114620001c957600080fd5b919050565b60008060408385031215620001e257600080fd5b620001ed83620001b1565b9150620001fd60208401620001b1565b90509250929050565b61212080620002166000396000f3fe608060405234801561001057600080fd5b506004361061010b5760003560e01c8063715018a61161009d578063715018a61461028257806381281be81461028a5780638da5cb5b1461029d5780639869b736146102a5578063a750066e146102af578063ac063725146102b9578063b5eea644146102cc578063ce1056cb146102ec578063f2fde38b146102ff578063f88a12171461031257600080fd5b8062f052f61461011057806312712f7c1461015e578063150b7a0214610179578063279dc1e41461018c57806328bd196a146101cb5780632b4c32be146101f65780633013ce291461020457806339b6b1e51461022457806342a6c4dd146102395780634c81a72714610274575b600080fd5b61012361011e366004611ba2565b61031b565b6040805195865260208601949094526001600160a01b03909216928401929092526060830191909152608082015260a0015b60405180910390f35b61016c638f9f4b6360e01b81565b6040516101559190611ec1565b61016c610187366004611b0b565b6103ef565b6101bd61019a366004611ba2565b600560209081526000938452604080852082529284528284209052825290205481565b604051908152602001610155565b6101bd6101d9366004611b76565b600360209081526000928352604080842090915290825290205481565b61016c6380ac58cd60e01b81565b600154610217906001600160a01b031681565b6040516101559190611e7e565b610237610232366004611b76565b61060f565b005b61024c610247366004611be4565b610637565b604080519485526001600160a01b039093166020850152918301526060820152608001610155565b61016c630a85bd0160e11b81565b61023761066e565b610237610298366004611c19565b6106e7565b610217610703565b6101bd620f424081565b6101bd62eff10081565b6102376102c7366004611c54565b610712565b6101bd6102da366004611dc4565b60046020526000908152604090205481565b6102376102fa366004611cc0565b610726565b61023761030d366004611ad1565b6107db565b6101bd61012c81565b6001600160a01b038084166000908152600560209081526040808320868452825280832093851683529281528282205480835260049091529181205491908080610366888887610637565b929650909450925090506001600160a01b03868116908416146103e45760405162461bcd60e51b815260206004820152602b60248201527f42696464657220686173206e6f7420616e206163746976652062696420666f7260448201526a103a3434b9903a37b5b2b760a91b60648201526084015b60405180910390fd5b939792965093509350565b6000806103fb836108ca565b600081815260046020526040812054919250610418338784610930565b80519091508314801561042f5750428160a0015110155b6104695760405162461bcd60e51b815260206004820152600b60248201526a125b9d985b1a5908189a5960aa1b60448201526064016103db565b6020810151608082015160c08301516104859033908a90610afb565b61048f8282610c4f565b3360009081526002602081815260408084208c8552825280842088855290915282208281556001810180546001600160a01b03199081169091559181018054909216909155600381018290556004810182905560058101829055906104f76006830182611896565b5050600085815260046020818152604080842084905533808552600583528185208d865283528185206001600160a01b038816808752908452828620869055818652600384528286208e875290935281852094909455516323b872dd60e01b815230928101929092526024820152604481018a90526323b872dd90606401600060405180830381600087803b15801561058f57600080fd5b505af11580156105a3573d6000803e3d6000fd5b5050604080518881526001600160a01b038681166020830152918101859052908d1692508a915033907f4c7993c125e431034e4d584124fe0919f0efce009b15196d3ba1405e1c1c51209060600160405180910390a450630a85bd0160e11b9998505050505050505050565b60008061061d84843361031b565b505050915091506106318282868633610e1b565b50505050565b600080600080600061064a888888610930565b80516020820151608083015160a090930151919b909a509198509650945050505050565b33610677610703565b6001600160a01b03161461069d5760405162461bcd60e51b81526004016103db90611f22565b600080546040516001600160a01b03909116907f8be0079c531659141344cd1fd0a4f28419497f9722a3daafe3b4186f6b6457e0908390a3600080546001600160a01b0319169055565b6106318484848460405180602001604052806000815250611041565b6000546001600160a01b031690565b61071f8585858585611041565b5050505050565b8251825181146107485760405162461bcd60e51b81526004016103db90611ed6565b815181146107685760405162461bcd60e51b81526004016103db90611ed6565b60005b8181101561071f576107c9858281518110610788576107886120a9565b60200260200101518583815181106107a2576107a26120a9565b60200260200101518584815181106107bc576107bc6120a9565b602002602001015161153f565b806107d381612078565b91505061076b565b336107e4610703565b6001600160a01b03161461080a5760405162461bcd60e51b81526004016103db90611f22565b6001600160a01b03811661086f5760405162461bcd60e51b815260206004820152602660248201527f4f776e61626c653a206e6577206f776e657220697320746865207a65726f206160448201526564647265737360d01b60648201526084016103db565b600080546040516001600160a01b03808516939216917f8be0079c531659141344cd1fd0a4f28419497f9722a3daafe3b4186f6b6457e091a3600080546001600160a01b0319166001600160a01b0392909216919091179055565b600081516020146109285760405162461bcd60e51b815260206004820152602260248201527f54686520646174612073686f756c64206265203332206279746573206c656e676044820152610e8d60f31b60648201526084016103db565b506020015190565b6109856040518060e001604052806000801916815260200160006001600160a01b0316815260200160006001600160a01b03168152602001600081526020016000815260200160008152602001606081525090565b6001600160a01b038416600090815260036020908152604080832086845290915290205482106109e75760405162461bcd60e51b815260206004820152600d60248201526c092dcecc2d8d2c840d2dcc8caf609b1b60448201526064016103db565b6001600160a01b0380851660009081526002602081815260408084208885528252808420878552825292839020835160e08101855281548152600182015486169281019290925291820154909316918301919091526003810154606083015260048101546080830152600581015460a083015260068101805460c084019190610a6f9061203d565b80601f0160208091040260200160405190810160405280929190818152602001828054610a9b9061203d565b8015610ae85780601f10610abd57610100808354040283529160200191610ae8565b820191906000526020600020905b815481529060010190602001808311610acb57829003601f168201915b50505050508152505090505b9392505050565b6040516301ffc9a760e01b815283906001600160a01b038216906301ffc9a790610b3090638f9f4b6360e01b90600401611ec1565b60206040518083038186803b158015610b4857600080fd5b505afa158015610b5c573d6000803e3d6000fd5b505050506040513d601f19601f82011682018060405250810190610b809190611da2565b1561063157604051638f9f4b6360e01b81526001600160a01b03821690638f9f4b6390610bb39086908690600401611f57565b60206040518083038186803b158015610bcb57600080fd5b505afa158015610bdf573d6000803e3d6000fd5b505050506040513d601f19601f82011682018060405250810190610c039190611da2565b6106315760405162461bcd60e51b815260206004820152601e60248201527f546f6b656e2066696e6765727072696e74206973206e6f742076616c6964000060448201526064016103db565b6001546040516370a0823160e01b815282916001600160a01b0316906370a0823190610c7f908690600401611e7e565b60206040518083038186803b158015610c9757600080fd5b505afa158015610cab573d6000803e3d6000fd5b505050506040513d601f19601f82011682018060405250810190610ccf9190611ddd565b1015610d125760405162461bcd60e51b8152602060048201526012602482015271496e73756666696369656e742066756e647360701b60448201526064016103db565b600154604051636eb1769f60e11b81526001600160a01b0384811660048301523060248301528392169063dd62ed3e9060440160206040518083038186803b158015610d5d57600080fd5b505afa158015610d71573d6000803e3d6000fd5b505050506040513d601f19601f82011682018060405250810190610d959190611ddd565b1015610e175760405162461bcd60e51b8152602060048201526044602482018190527f54686520636f6e7472616374206973206e6f7420617574686f72697a65642074908201527f6f20757365207061796d656e7420746f6b656e206f6e206269646465722062656064820152633430b63360e11b608482015260a4016103db565b5050565b60008481526004602090815260408083208390556001600160a01b038087168085526005845282852087865284528285209186168552908352818420849055835260038252808320858452909152812054610e7890600190611fe3565b9050858114610f44576001600160a01b03848116600090815260026020818152604080842088855282528084208685529091528083208a845292208254815560018084015490820180549186166001600160a01b0319928316179055838301549282018054939095169216919091179092556003808201549083015560048082015490830155600580820154908301556006808201805492938493909283019190610f229061203d565b610f2d9291906118d3565b505090546000908152600460205260409020879055505b6001600160a01b0384166000908152600260208181526040808420878552825280842085855290915282208281556001810180546001600160a01b0319908116909155918101805490921690915560038101829055600481018290556005810182905590610fb56006830182611896565b50506001600160a01b03841660009081526003602090815260408083208684529091528120805491610fe683612026565b9190505550816001600160a01b031683856001600160a01b03167fc43098075c34b8b92567bd49f08f55e397ebf82dd82072e3eb1be525c4506f5f8860405161103191815260200190565b60405180910390a4505050505050565b61104a856115c7565b611055858583610afb565b600083116110a55760405162461bcd60e51b815260206004820152601d60248201527f50726963652073686f756c6420626520626967676572207468616e203000000060448201526064016103db565b6110af3384610c4f565b61012c8210156111135760405162461bcd60e51b815260206004820152602960248201527f546865206269642073686f756c64206c617374206c6f6e676572207468616e2060448201526835206d696e7574657360b81b60648201526084016103db565b62eff1008211156111785760405162461bcd60e51b815260206004820152602960248201527f546865206269642063616e206e6f74206c617374206c6f6e676572207468616e6044820152682036206d6f6e74687360b81b60648201526084016103db565b6040516331a9108f60e11b81526004810185905285906000906001600160a01b03831690636352211e9060240160206040518083038186803b1580156111bd57600080fd5b505afa1580156111d1573d6000803e3d6000fd5b505050506040513d601f19601f820116820180604052508101906111f59190611aee565b90506001600160a01b0381161580159061121857506001600160a01b0381163314155b6112855760405162461bcd60e51b815260206004820152603860248201527f54686520746f6b656e2073686f756c64206861766520616e206f776e6572206460448201527734b33332b932b73a10333937b6903a34329039b2b73232b960411b60648201526084016103db565b60006112918542611fcb565b9050600042338a8a8a8a8a6040516020016112b29796959493929190611e22565b60405160208183030381529060405280519060200120905060006112d78a8a336116ff565b156113045760006112e98b8b3361031b565b505050600090815260046020526040812055915061133d9050565b506001600160a01b03891660009081526003602090815260408083208b8452909152812080549182919061133783612078565b91905055505b81600560008c6001600160a01b03166001600160a01b0316815260200190815260200160002060008b81526020019081526020016000206000336001600160a01b03166001600160a01b03168152602001908152602001600020819055508060046000848152602001908152602001600020819055506040518060e00160405280838152602001336001600160a01b031681526020018b6001600160a01b031681526020018a815260200189815260200184815260200187815250600260008c6001600160a01b03166001600160a01b0316815260200190815260200160002060008b815260200190815260200160002060008381526020019081526020016000206000820151816000015560208201518160010160006101000a8154816001600160a01b0302191690836001600160a01b0316021790555060408201518160020160006101000a8154816001600160a01b0302191690836001600160a01b03160217905550606082015181600301556080820151816004015560a0820151816005015560c08201518160060190805190602001906114dd92919061195e565b50905050336001600160a01b0316898b6001600160a01b03167fe45b7709f1eed66d6e28f43b32f2003da0f0c40b92f75a8994370516e048620f858c888c60405161152b9493929190611e92565b60405180910390a450505050505050505050565b600080600061154f86868661031b565b94505050925092504281106115b25760405162461bcd60e51b815260206004820152602360248201527f5468652062696420746f2072656d6f76652073686f756c6420626520657870696044820152621c995960ea1b60648201526084016103db565b6115bf8383888888610e1b565b505050505050565b6001600160a01b0381163b61161b5760405162461bcd60e51b815260206004820152601a602482015279151bdad95b881cda1bdd5b1908189948184818dbdb9d1c9858dd60321b60448201526064016103db565b6040516301ffc9a760e01b815281906001600160a01b038216906301ffc9a790611650906380ac58cd60e01b90600401611ec1565b60206040518083038186803b15801561166857600080fd5b505afa15801561167c573d6000803e3d6000fd5b505050506040513d601f19601f820116820180604052508101906116a09190611da2565b610e175760405162461bcd60e51b815260206004820152602a60248201527f546f6b656e2068617320616e20696e76616c69642045524337323120696d706c60448201526932b6b2b73a30ba34b7b760b11b60648201526084016103db565b6001600160a01b0380841660008181526005602090815260408083208784528252808320948616835293815283822054808352600482528483205493835260038252848320878452909152928120549092919081101561188a576001600160a01b0380871660009081526002602081815260408084208a855282528084208685528252808420815160e08101835281548152600182015487169381019390935292830154909416938101939093526003810154606084015260048101546080840152600581015460a084015260068101805492939260c0840191906117e39061203d565b80601f016020809104026020016040519081016040528092919081815260200182805461180f9061203d565b801561185c5780601f106118315761010080835404028352916020019161185c565b820191906000526020600020905b81548152906001019060200180831161183f57829003601f168201915b5050505050815250509050846001600160a01b031681602001516001600160a01b0316149350505050610af4565b50600095945050505050565b5080546118a29061203d565b6000825580601f106118b2575050565b601f0160209004906000526020600020908101906118d091906119d2565b50565b8280546118df9061203d565b90600052602060002090601f016020900481019282611901576000855561194e565b82601f10611912578054855561194e565b8280016001018555821561194e57600052602060002091601f016020900482015b8281111561194e578254825591600101919060010190611933565b5061195a9291506119d2565b5090565b82805461196a9061203d565b90600052602060002090601f01602090048101928261198c576000855561194e565b82601f106119a557805160ff191683800117855561194e565b8280016001018555821561194e579182015b8281111561194e5782518255916020019190600101906119b7565b5b8082111561195a57600081556001016119d3565b600082601f8301126119f857600080fd5b81356020611a0d611a0883611fa8565b611f78565b80838252828201915082860187848660051b8901011115611a2d57600080fd5b60005b85811015611a55578135611a43816120d5565b84529284019290840190600101611a30565b5090979650505050505050565b600082601f830112611a7357600080fd5b81356001600160401b03811115611a8c57611a8c6120bf565b611a9f601f8201601f1916602001611f78565b818152846020838601011115611ab457600080fd5b816020850160208301376000918101602001919091529392505050565b600060208284031215611ae357600080fd5b8135610af4816120d5565b600060208284031215611b0057600080fd5b8151610af4816120d5565b60008060008060808587031215611b2157600080fd5b8435611b2c816120d5565b93506020850135611b3c816120d5565b92506040850135915060608501356001600160401b03811115611b5e57600080fd5b611b6a87828801611a62565b91505092959194509250565b60008060408385031215611b8957600080fd5b8235611b94816120d5565b946020939093013593505050565b600080600060608486031215611bb757600080fd5b8335611bc2816120d5565b9250602084013591506040840135611bd9816120d5565b809150509250925092565b600080600060608486031215611bf957600080fd5b8335611c04816120d5565b95602085013595506040909401359392505050565b60008060008060808587031215611c2f57600080fd5b8435611c3a816120d5565b966020860135965060408601359560600135945092505050565b600080600080600060a08688031215611c6c57600080fd5b8535611c77816120d5565b945060208601359350604086013592506060860135915060808601356001600160401b03811115611ca757600080fd5b611cb388828901611a62565b9150509295509295909350565b600080600060608486031215611cd557600080fd5b83356001600160401b0380821115611cec57600080fd5b611cf8878388016119e7565b9450602091508186013581811115611d0f57600080fd5b8601601f81018813611d2057600080fd5b8035611d2e611a0882611fa8565b8082825285820191508584018b878560051b8701011115611d4e57600080fd5b600094505b83851015611d71578035835260019490940193918601918601611d53565b5096505050506040860135915080821115611d8b57600080fd5b50611d98868287016119e7565b9150509250925092565b600060208284031215611db457600080fd5b81518015158114610af457600080fd5b600060208284031215611dd657600080fd5b5035919050565b600060208284031215611def57600080fd5b5051919050565b60008151808452611e0e816020860160208601611ffa565b601f01601f19169290920160200192915050565b878152600060018060601b0319808960601b166020840152808860601b166034840152508560488301528460688301528360888301528251611e6b8160a8850160208701611ffa565b9190910160a80198975050505050505050565b6001600160a01b0391909116815260200190565b848152836020820152826040820152608060608201526000611eb76080830184611df6565b9695505050505050565b6001600160e01b031991909116815260200190565b6020808252602c908201527f506172616d65746572206172726179732073686f756c6420686176652074686560408201526b040e6c2daca40d8cadccee8d60a31b606082015260800190565b6020808252818101527f4f776e61626c653a2063616c6c6572206973206e6f7420746865206f776e6572604082015260600190565b828152604060208201526000611f706040830184611df6565b949350505050565b604051601f8201601f191681016001600160401b0381118282101715611fa057611fa06120bf565b604052919050565b60006001600160401b03821115611fc157611fc16120bf565b5060051b60200190565b60008219821115611fde57611fde612093565b500190565b600082821015611ff557611ff5612093565b500390565b60005b83811015612015578181015183820152602001611ffd565b838111156106315750506000910152565b60008161203557612035612093565b506000190190565b600181811c9082168061205157607f821691505b6020821081141561207257634e487b7160e01b600052602260045260246000fd5b50919050565b600060001982141561208c5761208c612093565b5060010190565b634e487b7160e01b600052601160045260246000fd5b634e487b7160e01b600052603260045260246000fd5b634e487b7160e01b600052604160045260246000fd5b6001600160a01b03811681146118d057600080fdfea26469706673582212204e41f3f98ee94fc12fa146bcb49f6315ee32a1c7baa75c132c894e59435bf24a64736f6c634300080600338be0079c531659141344cd1fd0a4f28419497f9722a3daafe3b4186f6b6457e0",
  "devdoc": {
    "kind": "dev",
    "methods": {
      "cancelBid(address,uint256)": {
        "details": "Cancel a bid for an ERC721 token",
        "params": {
          "_tokenAddress": "- address of the ERC721 token",
          "_tokenId": "- uint256 of the token id"
        }
      },
      "constructor": {
        "details": "Constructor of the contract.",
        "params": {
          "_owner": "- address of the owner for the contract",
          "_paymentToken": "- address of the payment token"
        }
      },
      "getBidByBidder(address,uint256,address)": {
        "details": "Get the active bid id and index by a bidder and an specific token.",
        "params": {
          "_bidder": "- address of the bidder",
          "_tokenAddress": "- address of the ERC721 token",
          "_tokenId": "- uint256 of the token id"
        },
        "returns": {
          "bidId": "- bytes32 of the bid id",
          "bidIndex": "- uint256 of the bid index to be used within bidsByToken mapping",
          "bidder": "- address of the bidder address",
          "expiresAt": "- uint256 of the expiration time",
          "price": "- uint256 of the bid price"
        }
      },
      "getBidByToken(address,uint256,uint256)": {
        "details": "Get an NFT token bid by index",
        "params": {
          "_index": "- uint256 of the index",
          "_tokenAddress": "- address of the NFT token",
          "_tokenId": "- uint256 of the token id"
        },
        "returns": {
          "_0": "bytes32 of the bid id",
          "_1": "address of the bidder address",
          "_2": "uint256 of the bid price",
          "_3": "uint256 of the expiration time"
        }
      },
      "onERC721Received(address,address,uint256,bytes)": {
        "details": "Used as the only way to accept a bid. The token owner should send the token to this contract using safeTransferFrom. The last parameter (bytes) should be the bid id.",
        "params": {
          "_data": "Additional data with no specified format",
          "_from": "The address which previously owned the token",
          "_tokenId": "The NFT identifier which is being transferred"
        },
        "returns": {
          "_0": "`bytes4(keccak256(\"onERC721Received(address,address,uint256,bytes)\"))`"
        }
      },
      "owner()": {
        "details": "Returns the address of the current owner."
      },
      "placeBid(address,uint256,uint256,uint256)": {
        "details": "Place a bid for an ERC721 token.",
        "params": {
          "_duration": "- uint256 of the duration in seconds for the bid",
          "_price": "- uint256 of the price for the bid",
          "_tokenAddress": "- address of the ERC721 token",
          "_tokenId": "- uint256 of the token id"
        }
      },
      "placeBid(address,uint256,uint256,uint256,bytes)": {
        "details": "Place a bid for an ERC721 token with fingerprint.",
        "params": {
          "_duration": "- uint256 of the duration in seconds for the bid",
          "_fingerprint": "- bytes of ERC721 token fingerprint",
          "_price": "- uint256 of the price for the bid",
          "_tokenAddress": "- address of the ERC721 token",
          "_tokenId": "- uint256 of the token id"
        }
      },
      "removeExpiredBids(address[],uint256[],address[])": {
        "details": "Remove expired bids",
        "params": {
          "_bidders": "- address[] of the bidders",
          "_tokenAddresses": "- address[] of the ERC721 tokens",
          "_tokenIds": "- uint256[] of the token ids"
        }
      },
      "renounceOwnership()": {
        "details": "Leaves the contract without owner. It will not be possible to call `onlyOwner` functions anymore. Can only be called by the current owner. NOTE: Renouncing ownership will leave the contract without an owner, thereby removing any functionality that is only available to the owner."
      },
      "transferOwnership(address)": {
        "details": "Transfers ownership of the contract to a new account (`newOwner`). Can only be called by the current owner."
      }
    },
    "version": 1
  },
  "userdoc": {
    "kind": "user",
    "methods": {
      "getBidByBidder(address,uint256,address)": {
        "notice": "If the bidder has not a valid bid, the transaction will be reverted."
      },
      "onERC721Received(address,address,uint256,bytes)": {
        "notice": "The ERC721 smart contract calls this function on the recipient after a `safetransfer`. This function MAY throw to revert and reject the transfer. Return of other than the magic value MUST result in the transaction being reverted. Note: Contract address is always the message sender. This method should be seen as 'acceptBid'. It validates that the bid id matches an active bid for the bid token."
      }
    },
    "version": 1
  },
  "storageLayout": {
    "storage": [
      {
        "astId": 2321,
        "contract": "contracts/NFTMarketplace.sol:NFTMarketplace",
        "label": "_owner",
        "offset": 0,
        "slot": "0",
        "type": "t_address"
      },
      {
        "astId": 1333,
        "contract": "contracts/NFTMarketplace.sol:NFTMarketplace",
        "label": "paymentToken",
        "offset": 0,
        "slot": "1",
        "type": "t_contract(ERC20Interface)1260"
      },
      {
        "astId": 1342,
        "contract": "contracts/NFTMarketplace.sol:NFTMarketplace",
        "label": "bidsByToken",
        "offset": 0,
        "slot": "2",
        "type": "t_mapping(t_address,t_mapping(t_uint256,t_mapping(t_uint256,t_struct(Bid)1330_storage)))"
      },
      {
        "astId": 1348,
        "contract": "contracts/NFTMarketplace.sol:NFTMarketplace",
        "label": "bidCounterByToken",
        "offset": 0,
        "slot": "3",
        "type": "t_mapping(t_address,t_mapping(t_uint256,t_uint256))"
      },
      {
        "astId": 1352,
        "contract": "contracts/NFTMarketplace.sol:NFTMarketplace",
        "label": "bidIndexByBidId",
        "offset": 0,
        "slot": "4",
        "type": "t_mapping(t_bytes32,t_uint256)"
      },
      {
        "astId": 1360,
        "contract": "contracts/NFTMarketplace.sol:NFTMarketplace",
        "label": "bidIdByTokenAndBidder",
        "offset": 0,
        "slot": "5",
        "type": "t_mapping(t_address,t_mapping(t_uint256,t_mapping(t_address,t_bytes32)))"
      }
    ],
    "types": {
      "t_address": {
        "encoding": "inplace",
        "label": "address",
        "numberOfBytes": "20"
      },
      "t_bytes32": {
        "encoding": "inplace",
        "label": "bytes32",
        "numberOfBytes": "32"
      },
      "t_bytes_storage": {
        "encoding": "bytes",
        "label": "bytes",
        "numberOfBytes": "32"
      },
      "t_contract(ERC20Interface)1260": {
        "encoding": "inplace",
        "label": "contract ERC20Interface",
        "numberOfBytes": "20"
      },
      "t_mapping(t_address,t_bytes32)": {
        "encoding": "mapping",
        "key": "t_address",
        "label": "mapping(address => bytes32)",
        "numberOfBytes": "32",
        "value": "t_bytes32"
      },
      "t_mapping(t_address,t_mapping(t_uint256,t_mapping(t_address,t_bytes32)))": {
        "encoding": "mapping",
        "key": "t_address",
        "label": "mapping(address => mapping(uint256 => mapping(address => bytes32)))",
        "numberOfBytes": "32",
        "value": "t_mapping(t_uint256,t_mapping(t_address,t_bytes32))"
      },
      "t_mapping(t_address,t_mapping(t_uint256,t_mapping(t_uint256,t_struct(Bid)1330_storage)))": {
        "encoding": "mapping",
        "key": "t_address",
        "label": "mapping(address => mapping(uint256 => mapping(uint256 => struct NFTMarketplaceStorage.Bid)))",
        "numberOfBytes": "32",
        "value": "t_mapping(t_uint256,t_mapping(t_uint256,t_struct(Bid)1330_storage))"
      },
      "t_mapping(t_address,t_mapping(t_uint256,t_uint256))": {
        "encoding": "mapping",
        "key": "t_address",
        "label": "mapping(address => mapping(uint256 => uint256))",
        "numberOfBytes": "32",
        "value": "t_mapping(t_uint256,t_uint256)"
      },
      "t_mapping(t_bytes32,t_uint256)": {
        "encoding": "mapping",
        "key": "t_bytes32",
        "label": "mapping(bytes32 => uint256)",
        "numberOfBytes": "32",
        "value": "t_uint256"
      },
      "t_mapping(t_uint256,t_mapping(t_address,t_bytes32))": {
        "encoding": "mapping",
        "key": "t_uint256",
        "label": "mapping(uint256 => mapping(address => bytes32))",
        "numberOfBytes": "32",
        "value": "t_mapping(t_address,t_bytes32)"
      },
      "t_mapping(t_uint256,t_mapping(t_uint256,t_struct(Bid)1330_storage))": {
        "encoding": "mapping",
        "key": "t_uint256",
        "label": "mapping(uint256 => mapping(uint256 => struct NFTMarketplaceStorage.Bid))",
        "numberOfBytes": "32",
        "value": "t_mapping(t_uint256,t_struct(Bid)1330_storage)"
      },
      "t_mapping(t_uint256,t_struct(Bid)1330_storage)": {
        "encoding": "mapping",
        "key": "t_uint256",
        "label": "mapping(uint256 => struct NFTMarketplaceStorage.Bid)",
        "numberOfBytes": "32",
        "value": "t_struct(Bid)1330_storage"
      },
      "t_mapping(t_uint256,t_uint256)": {
        "encoding": "mapping",
        "key": "t_uint256",
        "label": "mapping(uint256 => uint256)",
        "numberOfBytes": "32",
        "value": "t_uint256"
      },
      "t_struct(Bid)1330_storage": {
        "encoding": "inplace",
        "label": "struct NFTMarketplaceStorage.Bid",
        "members": [
          {
            "astId": 1317,
            "contract": "contracts/NFTMarketplace.sol:NFTMarketplace",
            "label": "id",
            "offset": 0,
            "slot": "0",
            "type": "t_bytes32"
          },
          {
            "astId": 1319,
            "contract": "contracts/NFTMarketplace.sol:NFTMarketplace",
            "label": "bidder",
            "offset": 0,
            "slot": "1",
            "type": "t_address"
          },
          {
            "astId": 1321,
            "contract": "contracts/NFTMarketplace.sol:NFTMarketplace",
            "label": "tokenAddress",
            "offset": 0,
            "slot": "2",
            "type": "t_address"
          },
          {
            "astId": 1323,
            "contract": "contracts/NFTMarketplace.sol:NFTMarketplace",
            "label": "tokenId",
            "offset": 0,
            "slot": "3",
            "type": "t_uint256"
          },
          {
            "astId": 1325,
            "contract": "contracts/NFTMarketplace.sol:NFTMarketplace",
            "label": "price",
            "offset": 0,
            "slot": "4",
            "type": "t_uint256"
          },
          {
            "astId": 1327,
            "contract": "contracts/NFTMarketplace.sol:NFTMarketplace",
            "label": "expiresAt",
            "offset": 0,
            "slot": "5",
            "type": "t_uint256"
          },
          {
            "astId": 1329,
            "contract": "contracts/NFTMarketplace.sol:NFTMarketplace",
            "label": "fingerprint",
            "offset": 0,
            "slot": "6",
            "type": "t_bytes_storage"
          }
        ],
        "numberOfBytes": "224"
      },
      "t_uint256": {
        "encoding": "inplace",
        "label": "uint256",
        "numberOfBytes": "32"
      }
    }
  }
}